{
  "contractName": "Token",
  "abi": [
    {
      "inputs": [
        {
          "internalType": "string",
          "name": "name",
          "type": "string"
        },
        {
          "internalType": "string",
          "name": "symbol",
          "type": "string"
        }
      ],
      "stateMutability": "nonpayable",
      "type": "constructor"
    },
    {
      "anonymous": false,
      "inputs": [
        {
          "indexed": true,
          "internalType": "address",
          "name": "owner",
          "type": "address"
        },
        {
          "indexed": true,
          "internalType": "address",
          "name": "approved",
          "type": "address"
        },
        {
          "indexed": true,
          "internalType": "uint256",
          "name": "tokenId",
          "type": "uint256"
        }
      ],
      "name": "Approval",
      "type": "event"
    },
    {
      "anonymous": false,
      "inputs": [
        {
          "indexed": true,
          "internalType": "address",
          "name": "owner",
          "type": "address"
        },
        {
          "indexed": true,
          "internalType": "address",
          "name": "operator",
          "type": "address"
        },
        {
          "indexed": false,
          "internalType": "bool",
          "name": "approved",
          "type": "bool"
        }
      ],
      "name": "ApprovalForAll",
      "type": "event"
    },
    {
      "anonymous": false,
      "inputs": [
        {
          "indexed": true,
          "internalType": "address",
          "name": "previousOwner",
          "type": "address"
        },
        {
          "indexed": true,
          "internalType": "address",
          "name": "newOwner",
          "type": "address"
        }
      ],
      "name": "OwnershipTransferred",
      "type": "event"
    },
    {
      "anonymous": false,
      "inputs": [
        {
          "indexed": true,
          "internalType": "address",
          "name": "from",
          "type": "address"
        },
        {
          "indexed": true,
          "internalType": "address",
          "name": "to",
          "type": "address"
        },
        {
          "indexed": true,
          "internalType": "uint256",
          "name": "tokenId",
          "type": "uint256"
        }
      ],
      "name": "Transfer",
      "type": "event"
    },
    {
      "inputs": [
        {
          "internalType": "address",
          "name": "to",
          "type": "address"
        },
        {
          "internalType": "uint256",
          "name": "tokenId",
          "type": "uint256"
        }
      ],
      "name": "approve",
      "outputs": [],
      "stateMutability": "nonpayable",
      "type": "function"
    },
    {
      "inputs": [
        {
          "internalType": "address",
          "name": "owner",
          "type": "address"
        }
      ],
      "name": "balanceOf",
      "outputs": [
        {
          "internalType": "uint256",
          "name": "",
          "type": "uint256"
        }
      ],
      "stateMutability": "view",
      "type": "function"
    },
    {
      "inputs": [
        {
          "internalType": "uint256",
          "name": "tokenId",
          "type": "uint256"
        }
      ],
      "name": "getApproved",
      "outputs": [
        {
          "internalType": "address",
          "name": "",
          "type": "address"
        }
      ],
      "stateMutability": "view",
      "type": "function"
    },
    {
      "inputs": [
        {
          "internalType": "address",
          "name": "owner",
          "type": "address"
        },
        {
          "internalType": "address",
          "name": "operator",
          "type": "address"
        }
      ],
      "name": "isApprovedForAll",
      "outputs": [
        {
          "internalType": "bool",
          "name": "",
          "type": "bool"
        }
      ],
      "stateMutability": "view",
      "type": "function"
    },
    {
      "inputs": [],
      "name": "name",
      "outputs": [
        {
          "internalType": "string",
          "name": "",
          "type": "string"
        }
      ],
      "stateMutability": "view",
      "type": "function"
    },
    {
      "inputs": [],
      "name": "owner",
      "outputs": [
        {
          "internalType": "address",
          "name": "",
          "type": "address"
        }
      ],
      "stateMutability": "view",
      "type": "function"
    },
    {
      "inputs": [
        {
          "internalType": "uint256",
          "name": "tokenId",
          "type": "uint256"
        }
      ],
      "name": "ownerOf",
      "outputs": [
        {
          "internalType": "address",
          "name": "",
          "type": "address"
        }
      ],
      "stateMutability": "view",
      "type": "function"
    },
    {
      "inputs": [],
      "name": "renounceOwnership",
      "outputs": [],
      "stateMutability": "nonpayable",
      "type": "function"
    },
    {
      "inputs": [
        {
          "internalType": "address",
          "name": "from",
          "type": "address"
        },
        {
          "internalType": "address",
          "name": "to",
          "type": "address"
        },
        {
          "internalType": "uint256",
          "name": "tokenId",
          "type": "uint256"
        }
      ],
      "name": "safeTransferFrom",
      "outputs": [],
      "stateMutability": "nonpayable",
      "type": "function"
    },
    {
      "inputs": [
        {
          "internalType": "address",
          "name": "from",
          "type": "address"
        },
        {
          "internalType": "address",
          "name": "to",
          "type": "address"
        },
        {
          "internalType": "uint256",
          "name": "tokenId",
          "type": "uint256"
        },
        {
          "internalType": "bytes",
          "name": "_data",
          "type": "bytes"
        }
      ],
      "name": "safeTransferFrom",
      "outputs": [],
      "stateMutability": "nonpayable",
      "type": "function"
    },
    {
      "inputs": [
        {
          "internalType": "address",
          "name": "operator",
          "type": "address"
        },
        {
          "internalType": "bool",
          "name": "approved",
          "type": "bool"
        }
      ],
      "name": "setApprovalForAll",
      "outputs": [],
      "stateMutability": "nonpayable",
      "type": "function"
    },
    {
      "inputs": [
        {
          "internalType": "bytes4",
          "name": "interfaceId",
          "type": "bytes4"
        }
      ],
      "name": "supportsInterface",
      "outputs": [
        {
          "internalType": "bool",
          "name": "",
          "type": "bool"
        }
      ],
      "stateMutability": "view",
      "type": "function"
    },
    {
      "inputs": [],
      "name": "symbol",
      "outputs": [
        {
          "internalType": "string",
          "name": "",
          "type": "string"
        }
      ],
      "stateMutability": "view",
      "type": "function"
    },
    {
      "inputs": [
        {
          "internalType": "uint256",
          "name": "tokenId",
          "type": "uint256"
        }
      ],
      "name": "tokenURI",
      "outputs": [
        {
          "internalType": "string",
          "name": "",
          "type": "string"
        }
      ],
      "stateMutability": "view",
      "type": "function"
    },
    {
      "inputs": [
        {
          "internalType": "address",
          "name": "from",
          "type": "address"
        },
        {
          "internalType": "address",
          "name": "to",
          "type": "address"
        },
        {
          "internalType": "uint256",
          "name": "tokenId",
          "type": "uint256"
        }
      ],
      "name": "transferFrom",
      "outputs": [],
      "stateMutability": "nonpayable",
      "type": "function"
    },
    {
      "inputs": [
        {
          "internalType": "address",
          "name": "newOwner",
          "type": "address"
        }
      ],
      "name": "transferOwnership",
      "outputs": [],
      "stateMutability": "nonpayable",
      "type": "function"
    },
    {
      "inputs": [
        {
          "internalType": "uint256",
          "name": "tokenId",
          "type": "uint256"
        }
      ],
      "name": "getTokenDetails",
      "outputs": [
        {
          "components": [
            {
              "internalType": "uint8",
              "name": "damage",
              "type": "uint8"
            },
            {
              "internalType": "uint8",
              "name": "magic",
              "type": "uint8"
            },
            {
              "internalType": "uint256",
              "name": "lastMeal",
              "type": "uint256"
            },
            {
              "internalType": "uint256",
              "name": "endurance",
              "type": "uint256"
            }
          ],
          "internalType": "struct Token.Pet",
          "name": "",
          "type": "tuple"
        }
      ],
      "stateMutability": "view",
      "type": "function"
    },
    {
      "inputs": [
        {
          "internalType": "uint8",
          "name": "damage",
          "type": "uint8"
        },
        {
          "internalType": "uint8",
          "name": "magic",
          "type": "uint8"
        },
        {
          "internalType": "uint256",
          "name": "endurance",
          "type": "uint256"
        }
      ],
      "name": "mint",
      "outputs": [],
      "stateMutability": "nonpayable",
      "type": "function"
    },
    {
      "inputs": [
        {
          "internalType": "uint256",
          "name": "tokenId",
          "type": "uint256"
        }
      ],
      "name": "feed",
      "outputs": [],
      "stateMutability": "nonpayable",
      "type": "function"
    }
  ],
  "bytecode": "0x608060405260006007553480156200001657600080fd5b50604051620033703803806200337083398181016040528101906200003c9190620003b5565b818181600090805190602001906200005692919062000168565b5080600190805190602001906200006f92919062000168565b50505062000092620000866200009a60201b60201c565b620000a260201b60201c565b50506200049f565b600033905090565b6000600660009054906101000a900473ffffffffffffffffffffffffffffffffffffffff16905081600660006101000a81548173ffffffffffffffffffffffffffffffffffffffff021916908373ffffffffffffffffffffffffffffffffffffffff1602179055508173ffffffffffffffffffffffffffffffffffffffff168173ffffffffffffffffffffffffffffffffffffffff167f8be0079c531659141344cd1fd0a4f28419497f9722a3daafe3b4186f6b6457e060405160405180910390a35050565b828054620001769062000469565b90600052602060002090601f0160209004810192826200019a5760008555620001e6565b82601f10620001b557805160ff1916838001178555620001e6565b82800160010185558215620001e6579182015b82811115620001e5578251825591602001919060010190620001c8565b5b509050620001f59190620001f9565b5090565b5b8082111562000214576000816000905550600101620001fa565b5090565b6000604051905090565b600080fd5b600080fd5b600080fd5b600080fd5b6000601f19601f8301169050919050565b7f4e487b7100000000000000000000000000000000000000000000000000000000600052604160045260246000fd5b620002818262000236565b810181811067ffffffffffffffff82111715620002a357620002a262000247565b5b80604052505050565b6000620002b862000218565b9050620002c6828262000276565b919050565b600067ffffffffffffffff821115620002e957620002e862000247565b5b620002f48262000236565b9050602081019050919050565b60005b838110156200032157808201518184015260208101905062000304565b8381111562000331576000848401525b50505050565b60006200034e6200034884620002cb565b620002ac565b9050828152602081018484840111156200036d576200036c62000231565b5b6200037a84828562000301565b509392505050565b600082601f8301126200039a57620003996200022c565b5b8151620003ac84826020860162000337565b91505092915050565b60008060408385031215620003cf57620003ce62000222565b5b600083015167ffffffffffffffff811115620003f057620003ef62000227565b5b620003fe8582860162000382565b925050602083015167ffffffffffffffff81111562000422576200042162000227565b5b620004308582860162000382565b9150509250929050565b7f4e487b7100000000000000000000000000000000000000000000000000000000600052602260045260246000fd5b600060028204905060018216806200048257607f821691505b602082108114156200049957620004986200043a565b5b50919050565b612ec180620004af6000396000f3fe608060405234801561001057600080fd5b50600436106101215760003560e01c80638da5cb5b116100ad578063c87b56dd11610071578063c87b56dd14610306578063e985e9c514610336578063eb22ed3214610366578063f2fde38b14610382578063f59dfdfb1461039e57610121565b80638da5cb5b1461026257806395d89b4114610280578063a22cb4651461029e578063b88d4fde146102ba578063c1e03728146102d657610121565b806323b872dd116100f457806323b872dd146101c057806342842e0e146101dc5780636352211e146101f857806370a0823114610228578063715018a61461025857610121565b806301ffc9a71461012657806306fdde0314610156578063081812fc14610174578063095ea7b3146101a4575b600080fd5b610140600480360381019061013b9190611c2c565b6103ba565b60405161014d9190611c74565b60405180910390f35b61015e61049c565b60405161016b9190611d28565b60405180910390f35b61018e60048036038101906101899190611d80565b61052e565b60405161019b9190611dee565b60405180910390f35b6101be60048036038101906101b99190611e35565b6105b3565b005b6101da60048036038101906101d59190611e75565b6106cb565b005b6101f660048036038101906101f19190611e75565b61072b565b005b610212600480360381019061020d9190611d80565b61074b565b60405161021f9190611dee565b60405180910390f35b610242600480360381019061023d9190611ec8565b6107fd565b60405161024f9190611f04565b60405180910390f35b6102606108b5565b005b61026a61093d565b6040516102779190611dee565b60405180910390f35b610288610967565b6040516102959190611d28565b60405180910390f35b6102b860048036038101906102b39190611f4b565b6109f9565b005b6102d460048036038101906102cf91906120c0565b610a0f565b005b6102f060048036038101906102eb9190611d80565b610a71565b6040516102fd91906121c3565b60405180910390f35b610320600480360381019061031b9190611d80565b610aec565b60405161032d9190611d28565b60405180910390f35b610350600480360381019061034b91906121de565b610b93565b60405161035d9190611c74565b60405180910390f35b610380600480360381019061037b919061224a565b610c27565b005b61039c60048036038101906103979190611ec8565b610d61565b005b6103b860048036038101906103b39190611d80565b610e59565b005b60007f80ac58cd000000000000000000000000000000000000000000000000000000007bffffffffffffffffffffffffffffffffffffffffffffffffffffffff1916827bffffffffffffffffffffffffffffffffffffffffffffffffffffffff1916148061048557507f5b5e139f000000000000000000000000000000000000000000000000000000007bffffffffffffffffffffffffffffffffffffffffffffffffffffffff1916827bffffffffffffffffffffffffffffffffffffffffffffffffffffffff1916145b80610495575061049482610e9c565b5b9050919050565b6060600080546104ab906122cc565b80601f01602080910402602001604051908101604052809291908181526020018280546104d7906122cc565b80156105245780601f106104f957610100808354040283529160200191610524565b820191906000526020600020905b81548152906001019060200180831161050757829003601f168201915b5050505050905090565b600061053982610f06565b610578576040517f08c379a000000000000000000000000000000000000000000000000000000000815260040161056f90612370565b60405180910390fd5b6004600083815260200190815260200160002060009054906101000a900473ffffffffffffffffffffffffffffffffffffffff169050919050565b60006105be8261074b565b90508073ffffffffffffffffffffffffffffffffffffffff168373ffffffffffffffffffffffffffffffffffffffff16141561062f576040517f08c379a000000000000000000000000000000000000000000000000000000000815260040161062690612402565b60405180910390fd5b8073ffffffffffffffffffffffffffffffffffffffff1661064e610f72565b73ffffffffffffffffffffffffffffffffffffffff16148061067d575061067c81610677610f72565b610b93565b5b6106bc576040517f08c379a00000000000000000000000000000000000000000000000000000000081526004016106b390612494565b60405180910390fd5b6106c68383610f7a565b505050565b6106dc6106d6610f72565b82611033565b61071b576040517f08c379a000000000000000000000000000000000000000000000000000000000815260040161071290612526565b60405180910390fd5b610726838383611111565b505050565b61074683838360405180602001604052806000815250610a0f565b505050565b6000806002600084815260200190815260200160002060009054906101000a900473ffffffffffffffffffffffffffffffffffffffff169050600073ffffffffffffffffffffffffffffffffffffffff168173ffffffffffffffffffffffffffffffffffffffff1614156107f4576040517f08c379a00000000000000000000000000000000000000000000000000000000081526004016107eb906125b8565b60405180910390fd5b80915050919050565b60008073ffffffffffffffffffffffffffffffffffffffff168273ffffffffffffffffffffffffffffffffffffffff16141561086e576040517f08c379a00000000000000000000000000000000000000000000000000000000081526004016108659061264a565b60405180910390fd5b600360008373ffffffffffffffffffffffffffffffffffffffff1673ffffffffffffffffffffffffffffffffffffffff168152602001908152602001600020549050919050565b6108bd610f72565b73ffffffffffffffffffffffffffffffffffffffff166108db61093d565b73ffffffffffffffffffffffffffffffffffffffff1614610931576040517f08c379a0000000000000000000000000000000000000000000000000000000008152600401610928906126b6565b60405180910390fd5b61093b600061136d565b565b6000600660009054906101000a900473ffffffffffffffffffffffffffffffffffffffff16905090565b606060018054610976906122cc565b80601f01602080910402602001604051908101604052809291908181526020018280546109a2906122cc565b80156109ef5780601f106109c4576101008083540402835291602001916109ef565b820191906000526020600020905b8154815290600101906020018083116109d257829003601f168201915b5050505050905090565b610a0b610a04610f72565b8383611433565b5050565b610a20610a1a610f72565b83611033565b610a5f576040517f08c379a0000000000000000000000000000000000000000000000000000000008152600401610a5690612526565b60405180910390fd5b610a6b848484846115a0565b50505050565b610a79611b92565b600860008381526020019081526020016000206040518060800160405290816000820160009054906101000a900460ff1660ff1660ff1681526020016000820160019054906101000a900460ff1660ff1660ff168152602001600182015481526020016002820154815250509050919050565b6060610af782610f06565b610b36576040517f08c379a0000000000000000000000000000000000000000000000000000000008152600401610b2d90612748565b60405180910390fd5b6000610b406115fc565b90506000815111610b605760405180602001604052806000815250610b8b565b80610b6a84611613565b604051602001610b7b9291906127a4565b6040516020818303038152906040525b915050919050565b6000600560008473ffffffffffffffffffffffffffffffffffffffff1673ffffffffffffffffffffffffffffffffffffffff16815260200190815260200160002060008373ffffffffffffffffffffffffffffffffffffffff1673ffffffffffffffffffffffffffffffffffffffff16815260200190815260200160002060009054906101000a900460ff16905092915050565b610c2f610f72565b73ffffffffffffffffffffffffffffffffffffffff16610c4d61093d565b73ffffffffffffffffffffffffffffffffffffffff1614610ca3576040517f08c379a0000000000000000000000000000000000000000000000000000000008152600401610c9a906126b6565b60405180910390fd5b60405180608001604052808460ff1681526020018360ff1681526020014281526020018281525060086000600754815260200190815260200160002060008201518160000160006101000a81548160ff021916908360ff16021790555060208201518160000160016101000a81548160ff021916908360ff1602179055506040820151816001015560608201518160020155905050610d4433600754611774565b60076000815480929190610d57906127f7565b9190505550505050565b610d69610f72565b73ffffffffffffffffffffffffffffffffffffffff16610d8761093d565b73ffffffffffffffffffffffffffffffffffffffff1614610ddd576040517f08c379a0000000000000000000000000000000000000000000000000000000008152600401610dd4906126b6565b60405180910390fd5b600073ffffffffffffffffffffffffffffffffffffffff168173ffffffffffffffffffffffffffffffffffffffff161415610e4d576040517f08c379a0000000000000000000000000000000000000000000000000000000008152600401610e44906128b2565b60405180910390fd5b610e568161136d565b50565b60006008600083815260200190815260200160002090504281600201548260010154610e8591906128d2565b11610e8f57600080fd5b4281600101819055505050565b60007f01ffc9a7000000000000000000000000000000000000000000000000000000007bffffffffffffffffffffffffffffffffffffffffffffffffffffffff1916827bffffffffffffffffffffffffffffffffffffffffffffffffffffffff1916149050919050565b60008073ffffffffffffffffffffffffffffffffffffffff166002600084815260200190815260200160002060009054906101000a900473ffffffffffffffffffffffffffffffffffffffff1673ffffffffffffffffffffffffffffffffffffffff1614159050919050565b600033905090565b816004600083815260200190815260200160002060006101000a81548173ffffffffffffffffffffffffffffffffffffffff021916908373ffffffffffffffffffffffffffffffffffffffff160217905550808273ffffffffffffffffffffffffffffffffffffffff16610fed8361074b565b73ffffffffffffffffffffffffffffffffffffffff167f8c5be1e5ebec7d5bd14f71427d1e84f3dd0314c0f7b2291e5b200ac8c7c3b92560405160405180910390a45050565b600061103e82610f06565b61107d576040517f08c379a00000000000000000000000000000000000000000000000000000000081526004016110749061299a565b60405180910390fd5b60006110888361074b565b90508073ffffffffffffffffffffffffffffffffffffffff168473ffffffffffffffffffffffffffffffffffffffff1614806110f757508373ffffffffffffffffffffffffffffffffffffffff166110df8461052e565b73ffffffffffffffffffffffffffffffffffffffff16145b8061110857506111078185610b93565b5b91505092915050565b8273ffffffffffffffffffffffffffffffffffffffff166111318261074b565b73ffffffffffffffffffffffffffffffffffffffff1614611187576040517f08c379a000000000000000000000000000000000000000000000000000000000815260040161117e90612a2c565b60405180910390fd5b600073ffffffffffffffffffffffffffffffffffffffff168273ffffffffffffffffffffffffffffffffffffffff1614156111f7576040517f08c379a00000000000000000000000000000000000000000000000000000000081526004016111ee90612abe565b60405180910390fd5b611202838383611792565b61120d600082610f7a565b6001600360008573ffffffffffffffffffffffffffffffffffffffff1673ffffffffffffffffffffffffffffffffffffffff168152602001908152602001600020600082825461125d9190612ade565b925050819055506001600360008473ffffffffffffffffffffffffffffffffffffffff1673ffffffffffffffffffffffffffffffffffffffff16815260200190815260200160002060008282546112b491906128d2565b92505081905550816002600083815260200190815260200160002060006101000a81548173ffffffffffffffffffffffffffffffffffffffff021916908373ffffffffffffffffffffffffffffffffffffffff160217905550808273ffffffffffffffffffffffffffffffffffffffff168473ffffffffffffffffffffffffffffffffffffffff167fddf252ad1be2c89b69c2b068fc378daa952ba7f163c4a11628f55a4df523b3ef60405160405180910390a4505050565b6000600660009054906101000a900473ffffffffffffffffffffffffffffffffffffffff16905081600660006101000a81548173ffffffffffffffffffffffffffffffffffffffff021916908373ffffffffffffffffffffffffffffffffffffffff1602179055508173ffffffffffffffffffffffffffffffffffffffff168173ffffffffffffffffffffffffffffffffffffffff167f8be0079c531659141344cd1fd0a4f28419497f9722a3daafe3b4186f6b6457e060405160405180910390a35050565b8173ffffffffffffffffffffffffffffffffffffffff168373ffffffffffffffffffffffffffffffffffffffff1614156114a2576040517f08c379a000000000000000000000000000000000000000000000000000000000815260040161149990612b5e565b60405180910390fd5b80600560008573ffffffffffffffffffffffffffffffffffffffff1673ffffffffffffffffffffffffffffffffffffffff16815260200190815260200160002060008473ffffffffffffffffffffffffffffffffffffffff1673ffffffffffffffffffffffffffffffffffffffff16815260200190815260200160002060006101000a81548160ff0219169083151502179055508173ffffffffffffffffffffffffffffffffffffffff168373ffffffffffffffffffffffffffffffffffffffff167f17307eab39ab6107e8899845ad3d59bd9653f200f220920489ca2b5937696c31836040516115939190611c74565b60405180910390a3505050565b6115ab848484611111565b6115b7848484846117ce565b6115f6576040517f08c379a00000000000000000000000000000000000000000000000000000000081526004016115ed90612bf0565b60405180910390fd5b50505050565b606060405180602001604052806000815250905090565b6060600082141561165b576040518060400160405280600181526020017f3000000000000000000000000000000000000000000000000000000000000000815250905061176f565b600082905060005b6000821461168d578080611676906127f7565b915050600a826116869190612c3f565b9150611663565b60008167ffffffffffffffff8111156116a9576116a8611f95565b5b6040519080825280601f01601f1916602001820160405280156116db5781602001600182028036833780820191505090505b5090505b60008514611768576001826116f49190612ade565b9150600a856117039190612c70565b603061170f91906128d2565b60f81b81838151811061172557611724612ca1565b5b60200101907effffffffffffffffffffffffffffffffffffffffffffffffffffffffffffff1916908160001a905350600a856117619190612c3f565b94506116df565b8093505050505b919050565b61178e828260405180602001604052806000815250611956565b5050565b600060086000838152602001908152602001600020905042816002015482600101546117be91906128d2565b116117c857600080fd5b50505050565b60006117ef8473ffffffffffffffffffffffffffffffffffffffff166119b1565b15611949578373ffffffffffffffffffffffffffffffffffffffff1663150b7a02611818610f72565b8786866040518563ffffffff1660e01b815260040161183a9493929190612d25565b6020604051808303816000875af192505050801561187657506040513d601f19601f820116820180604052508101906118739190612d86565b60015b6118f9573d80600081146118a6576040519150601f19603f3d011682016040523d82523d6000602084013e6118ab565b606091505b506000815114156118f1576040517f08c379a00000000000000000000000000000000000000000000000000000000081526004016118e890612bf0565b60405180910390fd5b805181602001fd5b63150b7a0260e01b7bffffffffffffffffffffffffffffffffffffffffffffffffffffffff1916817bffffffffffffffffffffffffffffffffffffffffffffffffffffffff19161491505061194e565b600190505b949350505050565b61196083836119c4565b61196d60008484846117ce565b6119ac576040517f08c379a00000000000000000000000000000000000000000000000000000000081526004016119a390612bf0565b60405180910390fd5b505050565b600080823b905060008111915050919050565b600073ffffffffffffffffffffffffffffffffffffffff168273ffffffffffffffffffffffffffffffffffffffff161415611a34576040517f08c379a0000000000000000000000000000000000000000000000000000000008152600401611a2b90612dff565b60405180910390fd5b611a3d81610f06565b15611a7d576040517f08c379a0000000000000000000000000000000000000000000000000000000008152600401611a7490612e6b565b60405180910390fd5b611a8960008383611792565b6001600360008473ffffffffffffffffffffffffffffffffffffffff1673ffffffffffffffffffffffffffffffffffffffff1681526020019081526020016000206000828254611ad991906128d2565b92505081905550816002600083815260200190815260200160002060006101000a81548173ffffffffffffffffffffffffffffffffffffffff021916908373ffffffffffffffffffffffffffffffffffffffff160217905550808273ffffffffffffffffffffffffffffffffffffffff16600073ffffffffffffffffffffffffffffffffffffffff167fddf252ad1be2c89b69c2b068fc378daa952ba7f163c4a11628f55a4df523b3ef60405160405180910390a45050565b6040518060800160405280600060ff168152602001600060ff16815260200160008152602001600081525090565b6000604051905090565b600080fd5b600080fd5b60007fffffffff0000000000000000000000000000000000000000000000000000000082169050919050565b611c0981611bd4565b8114611c1457600080fd5b50565b600081359050611c2681611c00565b92915050565b600060208284031215611c4257611c41611bca565b5b6000611c5084828501611c17565b91505092915050565b60008115159050919050565b611c6e81611c59565b82525050565b6000602082019050611c896000830184611c65565b92915050565b600081519050919050565b600082825260208201905092915050565b60005b83811015611cc9578082015181840152602081019050611cae565b83811115611cd8576000848401525b50505050565b6000601f19601f8301169050919050565b6000611cfa82611c8f565b611d048185611c9a565b9350611d14818560208601611cab565b611d1d81611cde565b840191505092915050565b60006020820190508181036000830152611d428184611cef565b905092915050565b6000819050919050565b611d5d81611d4a565b8114611d6857600080fd5b50565b600081359050611d7a81611d54565b92915050565b600060208284031215611d9657611d95611bca565b5b6000611da484828501611d6b565b91505092915050565b600073ffffffffffffffffffffffffffffffffffffffff82169050919050565b6000611dd882611dad565b9050919050565b611de881611dcd565b82525050565b6000602082019050611e036000830184611ddf565b92915050565b611e1281611dcd565b8114611e1d57600080fd5b50565b600081359050611e2f81611e09565b92915050565b60008060408385031215611e4c57611e4b611bca565b5b6000611e5a85828601611e20565b9250506020611e6b85828601611d6b565b9150509250929050565b600080600060608486031215611e8e57611e8d611bca565b5b6000611e9c86828701611e20565b9350506020611ead86828701611e20565b9250506040611ebe86828701611d6b565b9150509250925092565b600060208284031215611ede57611edd611bca565b5b6000611eec84828501611e20565b91505092915050565b611efe81611d4a565b82525050565b6000602082019050611f196000830184611ef5565b92915050565b611f2881611c59565b8114611f3357600080fd5b50565b600081359050611f4581611f1f565b92915050565b60008060408385031215611f6257611f61611bca565b5b6000611f7085828601611e20565b9250506020611f8185828601611f36565b9150509250929050565b600080fd5b600080fd5b7f4e487b7100000000000000000000000000000000000000000000000000000000600052604160045260246000fd5b611fcd82611cde565b810181811067ffffffffffffffff82111715611fec57611feb611f95565b5b80604052505050565b6000611fff611bc0565b905061200b8282611fc4565b919050565b600067ffffffffffffffff82111561202b5761202a611f95565b5b61203482611cde565b9050602081019050919050565b82818337600083830152505050565b600061206361205e84612010565b611ff5565b90508281526020810184848401111561207f5761207e611f90565b5b61208a848285612041565b509392505050565b600082601f8301126120a7576120a6611f8b565b5b81356120b7848260208601612050565b91505092915050565b600080600080608085870312156120da576120d9611bca565b5b60006120e887828801611e20565b94505060206120f987828801611e20565b935050604061210a87828801611d6b565b925050606085013567ffffffffffffffff81111561212b5761212a611bcf565b5b61213787828801612092565b91505092959194509250565b600060ff82169050919050565b61215981612143565b82525050565b61216881611d4a565b82525050565b6080820160008201516121846000850182612150565b5060208201516121976020850182612150565b5060408201516121aa604085018261215f565b5060608201516121bd606085018261215f565b50505050565b60006080820190506121d8600083018461216e565b92915050565b600080604083850312156121f5576121f4611bca565b5b600061220385828601611e20565b925050602061221485828601611e20565b9150509250929050565b61222781612143565b811461223257600080fd5b50565b6000813590506122448161221e565b92915050565b60008060006060848603121561226357612262611bca565b5b600061227186828701612235565b935050602061228286828701612235565b925050604061229386828701611d6b565b9150509250925092565b7f4e487b7100000000000000000000000000000000000000000000000000000000600052602260045260246000fd5b600060028204905060018216806122e457607f821691505b602082108114156122f8576122f761229d565b5b50919050565b7f4552433732313a20617070726f76656420717565727920666f72206e6f6e657860008201527f697374656e7420746f6b656e0000000000000000000000000000000000000000602082015250565b600061235a602c83611c9a565b9150612365826122fe565b604082019050919050565b600060208201905081810360008301526123898161234d565b9050919050565b7f4552433732313a20617070726f76616c20746f2063757272656e74206f776e6560008201527f7200000000000000000000000000000000000000000000000000000000000000602082015250565b60006123ec602183611c9a565b91506123f782612390565b604082019050919050565b6000602082019050818103600083015261241b816123df565b9050919050565b7f4552433732313a20617070726f76652063616c6c6572206973206e6f74206f7760008201527f6e6572206e6f7220617070726f76656420666f7220616c6c0000000000000000602082015250565b600061247e603883611c9a565b915061248982612422565b604082019050919050565b600060208201905081810360008301526124ad81612471565b9050919050565b7f4552433732313a207472616e736665722063616c6c6572206973206e6f74206f60008201527f776e6572206e6f7220617070726f766564000000000000000000000000000000602082015250565b6000612510603183611c9a565b915061251b826124b4565b604082019050919050565b6000602082019050818103600083015261253f81612503565b9050919050565b7f4552433732313a206f776e657220717565727920666f72206e6f6e657869737460008201527f656e7420746f6b656e0000000000000000000000000000000000000000000000602082015250565b60006125a2602983611c9a565b91506125ad82612546565b604082019050919050565b600060208201905081810360008301526125d181612595565b9050919050565b7f4552433732313a2062616c616e636520717565727920666f7220746865207a6560008201527f726f206164647265737300000000000000000000000000000000000000000000602082015250565b6000612634602a83611c9a565b915061263f826125d8565b604082019050919050565b6000602082019050818103600083015261266381612627565b9050919050565b7f4f776e61626c653a2063616c6c6572206973206e6f7420746865206f776e6572600082015250565b60006126a0602083611c9a565b91506126ab8261266a565b602082019050919050565b600060208201905081810360008301526126cf81612693565b9050919050565b7f4552433732314d657461646174613a2055524920717565727920666f72206e6f60008201527f6e6578697374656e7420746f6b656e0000000000000000000000000000000000602082015250565b6000612732602f83611c9a565b915061273d826126d6565b604082019050919050565b6000602082019050818103600083015261276181612725565b9050919050565b600081905092915050565b600061277e82611c8f565b6127888185612768565b9350612798818560208601611cab565b80840191505092915050565b60006127b08285612773565b91506127bc8284612773565b91508190509392505050565b7f4e487b7100000000000000000000000000000000000000000000000000000000600052601160045260246000fd5b600061280282611d4a565b91507fffffffffffffffffffffffffffffffffffffffffffffffffffffffffffffffff821415612835576128346127c8565b5b600182019050919050565b7f4f776e61626c653a206e6577206f776e657220697320746865207a65726f206160008201527f6464726573730000000000000000000000000000000000000000000000000000602082015250565b600061289c602683611c9a565b91506128a782612840565b604082019050919050565b600060208201905081810360008301526128cb8161288f565b9050919050565b60006128dd82611d4a565b91506128e883611d4a565b9250827fffffffffffffffffffffffffffffffffffffffffffffffffffffffffffffffff0382111561291d5761291c6127c8565b5b828201905092915050565b7f4552433732313a206f70657261746f7220717565727920666f72206e6f6e657860008201527f697374656e7420746f6b656e0000000000000000000000000000000000000000602082015250565b6000612984602c83611c9a565b915061298f82612928565b604082019050919050565b600060208201905081810360008301526129b381612977565b9050919050565b7f4552433732313a207472616e73666572206f6620746f6b656e2074686174206960008201527f73206e6f74206f776e0000000000000000000000000000000000000000000000602082015250565b6000612a16602983611c9a565b9150612a21826129ba565b604082019050919050565b60006020820190508181036000830152612a4581612a09565b9050919050565b7f4552433732313a207472616e7366657220746f20746865207a65726f2061646460008201527f7265737300000000000000000000000000000000000000000000000000000000602082015250565b6000612aa8602483611c9a565b9150612ab382612a4c565b604082019050919050565b60006020820190508181036000830152612ad781612a9b565b9050919050565b6000612ae982611d4a565b9150612af483611d4a565b925082821015612b0757612b066127c8565b5b828203905092915050565b7f4552433732313a20617070726f766520746f2063616c6c657200000000000000600082015250565b6000612b48601983611c9a565b9150612b5382612b12565b602082019050919050565b60006020820190508181036000830152612b7781612b3b565b9050919050565b7f4552433732313a207472616e7366657220746f206e6f6e20455243373231526560008201527f63656976657220696d706c656d656e7465720000000000000000000000000000602082015250565b6000612bda603283611c9a565b9150612be582612b7e565b604082019050919050565b60006020820190508181036000830152612c0981612bcd565b9050919050565b7f4e487b7100000000000000000000000000000000000000000000000000000000600052601260045260246000fd5b6000612c4a82611d4a565b9150612c5583611d4a565b925082612c6557612c64612c10565b5b828204905092915050565b6000612c7b82611d4a565b9150612c8683611d4a565b925082612c9657612c95612c10565b5b828206905092915050565b7f4e487b7100000000000000000000000000000000000000000000000000000000600052603260045260246000fd5b600081519050919050565b600082825260208201905092915050565b6000612cf782612cd0565b612d018185612cdb565b9350612d11818560208601611cab565b612d1a81611cde565b840191505092915050565b6000608082019050612d3a6000830187611ddf565b612d476020830186611ddf565b612d546040830185611ef5565b8181036060830152612d668184612cec565b905095945050505050565b600081519050612d8081611c00565b92915050565b600060208284031215612d9c57612d9b611bca565b5b6000612daa84828501612d71565b91505092915050565b7f4552433732313a206d696e7420746f20746865207a65726f2061646472657373600082015250565b6000612de9602083611c9a565b9150612df482612db3565b602082019050919050565b60006020820190508181036000830152612e1881612ddc565b9050919050565b7f4552433732313a20746f6b656e20616c7265616479206d696e74656400000000600082015250565b6000612e55601c83611c9a565b9150612e6082612e1f565b602082019050919050565b60006020820190508181036000830152612e8481612e48565b905091905056fea264697066735822122075d8345a0354735aea95243db22dd9e395264980a060d41b99fa997d96da903264736f6c634300080a0033",
  "immutableReferences": {},
  "source": "\r\n// SPDX-License-Identifier: MIT\r\npragma solidity ^0.8.10;\r\n\r\nimport \"../node_modules/@openzeppelin/contracts/token/ERC721/ERC721.sol\";\r\nimport \"../node_modules/@openzeppelin/contracts/access/Ownable.sol\";\r\n\r\ncontract Token is ERC721, Ownable {\r\n\r\n    struct Pet {\r\n       uint8 damage; \r\n       uint8 magic;\r\n       uint256 lastMeal;\r\n       uint256 endurance;\r\n    }\r\n\r\n    uint256 nextId = 0;\r\n\r\n    mapping( uint256 => Pet) private _tokenDetails;\r\n\r\n    constructor(string memory name, string memory symbol) ERC721(name, symbol){\r\n\r\n    }\r\n\r\n    function getTokenDetails(uint256 tokenId) public view returns (Pet memory){\r\n       return _tokenDetails[tokenId];\r\n    }\r\n\r\n    function mint(uint8 damage, uint8 magic, uint256 endurance) public onlyOwner {\r\n        _tokenDetails[nextId] = Pet(damage, magic, block.timestamp, endurance);\r\n        _safeMint(msg.sender, nextId);\r\n        nextId++;\r\n    }\r\n\r\n    function feed(uint256 tokenId) public {\r\n        Pet storage pet = _tokenDetails[tokenId];\r\n        require(pet.lastMeal + pet.endurance > block.timestamp);\r\n        pet.lastMeal = block.timestamp;\r\n    }\r\n\r\n    function _beforeTokenTransfer(address from, address to, uint256 tokenId) internal override {\r\n        Pet storage pet = _tokenDetails[tokenId];\r\n        require(pet.lastMeal + pet.endurance > block.timestamp);\r\n    }\r\n\r\n} ",
  "sourcePath": "C:\\Users\\Rafi\\Documents\\GitHub\\NFT-EGG\\contracts\\Token.sol",
  "compiler": {
    "name": "solc",
    "version": "0.8.10+commit.fc410830.Emscripten.clang"
  },
  "schemaVersion": "3.4.3",
  "updatedAt": "2021-12-03T13:53:43.810Z",
  "devdoc": {
    "kind": "dev",
    "methods": {
      "approve(address,uint256)": {
        "details": "See {IERC721-approve}."
      },
      "balanceOf(address)": {
        "details": "See {IERC721-balanceOf}."
      },
      "getApproved(uint256)": {
        "details": "See {IERC721-getApproved}."
      },
      "isApprovedForAll(address,address)": {
        "details": "See {IERC721-isApprovedForAll}."
      },
      "name()": {
        "details": "See {IERC721Metadata-name}."
      },
      "owner()": {
        "details": "Returns the address of the current owner."
      },
      "ownerOf(uint256)": {
        "details": "See {IERC721-ownerOf}."
      },
      "renounceOwnership()": {
        "details": "Leaves the contract without owner. It will not be possible to call `onlyOwner` functions anymore. Can only be called by the current owner. NOTE: Renouncing ownership will leave the contract without an owner, thereby removing any functionality that is only available to the owner."
      },
      "safeTransferFrom(address,address,uint256)": {
        "details": "See {IERC721-safeTransferFrom}."
      },
      "safeTransferFrom(address,address,uint256,bytes)": {
        "details": "See {IERC721-safeTransferFrom}."
      },
      "setApprovalForAll(address,bool)": {
        "details": "See {IERC721-setApprovalForAll}."
      },
      "supportsInterface(bytes4)": {
        "details": "See {IERC165-supportsInterface}."
      },
      "symbol()": {
        "details": "See {IERC721Metadata-symbol}."
      },
      "tokenURI(uint256)": {
        "details": "See {IERC721Metadata-tokenURI}."
      },
      "transferFrom(address,address,uint256)": {
        "details": "See {IERC721-transferFrom}."
      },
      "transferOwnership(address)": {
        "details": "Transfers ownership of the contract to a new account (`newOwner`). Can only be called by the current owner."
      }
    },
    "version": 1
  },
  "userdoc": {
    "kind": "user",
    "methods": {},
    "version": 1
  }
}